:020000040800F2
:10000000000001208D040008D9040008D90400086C
:10001000D9040008D9040008D90400080000000031
:10002000000000000000000000000000D9040008EB
:10003000D904000800000000D9040008D904000811
:10004000D9040008D9040008D9040008D90400081C
:10005000D9040008D9040008D9040008D90400080C
:10006000D9040008D9040008D9040008D9040008FC
:10007000D9040008D9040008D9040008D9040008EC
:10008000D9040008D9040008D904000800000000C1
:10009000000000000000000000000000D90400087B
:1000A000D9040008D9040008D9040008D9040008BC
:1000B000D9040008D9040008D9040008D9040008AC
:1000C000D9040008D9040008D9040008D90400089C
:1000D000D9040008D9040008D90400080000000071
:1000E000D9040008D9040008D90400080000000061
:1000F000000000000000000000000000D90400081B
:1001000000000000D9040008D9040008D904000840
:1001100000000000000000000000000000000000DF
:10012000D9040008D9040008D9040008D90400083B
:10013000D9040008000000000000000000000000DA
:10014000000000000000000000000000D9040008CA
:10015000D9040008D9040008D9040008D90400080B
:10016000D9040008D90400080000000000000000C5
:10017000000000000000000000000000000000007F
:1001800000000000D904000800000000000000008A
:04019000D904000886
:1001940010B5054C237833B9044B13B10448AFF3BD
:1001A40000800123237010BD000000200000000027
:1001B400DC04000808B5034B1BB103490348AFF343
:1001C400008008BD0000000004000020DC040008DA
:1001D40080B400AF0B4B1B680A4A43F01003136052
:1001E400094B1B68084A43F001031360054B1B6865
:1001F400044A43F48073136000BFBD465DF8047B7A
:10020400704700BF443802403038024080B400AF29
:10021400144B1B68134A1B0D1B051360114B1B6801
:10022400104A43F4002313600F4B1B680E4A1B0D46
:100234001B0513600C4B1B680B4A43F4002313602B
:100244000A4B1B68094A43F070031360054B1B6893
:10025400044A43F00303136000BFBD465DF8047B0A
:10026400704700BF00000240080002402400024022
:1002740080B400AF1B4B00221A601B4B1B681A4A48
:1002840043F001031360174B1B68164A23F04073B5
:100294001360144B1B68134A43F000731360124B32
:1002A4001B68114A23F0020313600F4B1B680E4AAC
:1002B40043F0804313600C4B1B680B4A23F4006328
:1002C40013600A4B1B68094A23F080031360074B31
:1002D4001B68064A43F00103136000BFBD465DF886
:1002E400047B704704200140082001401020014095
:1002F40080B483B000AF00237B600B4B1B680A4AB9
:1003040043F08043136000BF084B1B6803F00203F3
:10031400002BF9D0064B1B687B607B6818460C37B2
:10032400BD465DF8047B7047082001400020014071
:100334004C20014080B483B000AF0346FB71254BD1
:100344001B68244A23F4FF5323F01F031360214B3B
:100354001B68204A43F4005313601F4B1B681E4A5A
:1003640023F47F5323F03F0313601B4B1B681A4A8B
:1003740043F400531360194B1B68184A43F00403F9
:100384001360164B1B68154A43F4CE631360114B7C
:100394001B68104A43F00803136000BF104B1B682E
:1003A40003F08003002BF9D00E4AFB79136000BFE1
:1003B4000B4B1B6803F04003002BF9D0084B1B6860
:1003C400074A23F07F03136000BF0C37BD465DF876
:1003D400047B70470C1001401010014008100140CC
:1003E400001001400410014080B582B000AFFFF757
:1003F400EFFEFFF70BFFFFF73BFFFFF779FF3860D6
:1004040000237B6012E001227B6802FA03F31A46A0
:100414003B681340002B03D03120FFF78BFF02E031
:100424003020FFF787FF7B6801337B607B68062BF6
:10043400E9DD0A20FFF77EFF0D20FFF77BFFDCE7F5
:1004440070B50D4D0D4C641BA4100026A64209D1B5
:100454000B4D0C4C00F040F8641BA4100026A6427F
:1004640005D170BD55F8043B98470136EEE755F8C1
:10047400043B98470136F2E7F4040008F40400084A
:10048400F4040008F8040008DFF830D00C480D49E3
:100494000D4A002302E0D458C4500433C4188C42DB
:1004A400F9D30A4A0A4C002301E013600432A24241
:1004B400FBD3FFF7C5FFFFF797FF7047000001204C
:1004C4000000002000000020FC04000800000020C0
:1004D4001C000020FEE70000F8B500BFF8BC08BC13
:1004E4009E467047F8B500BFF8BC08BC9E467047EE
:0404F400B901000842
:0404F8009501000862
:040000050800048D5E
:00000001FF
