:020000040800F2
:100000000000012079030008C5030008C5030008AB
:10001000C5030008C5030008C50300080000000070
:10002000000000000000000000000000C503000800
:10003000C503000800000000C5030008C503000850
:10004000C5030008C5030008C5030008C503000870
:10005000C5030008C5030008C5030008C503000860
:10006000C5030008C5030008C5030008C503000850
:10007000C5030008C5030008C5030008C503000840
:10008000C5030008C5030008C50300080000000000
:10009000000000000000000000000000C503000890
:1000A000C5030008C5030008C5030008C503000810
:1000B000C5030008C5030008C5030008C503000800
:1000C000C5030008C5030008C5030008C5030008F0
:1000D000C5030008C5030008C503000800000000B0
:1000E000C5030008C5030008C503000800000000A0
:1000F000000000000000000000000000C503000830
:1001000000000000C5030008C5030008C50300087F
:1001100000000000000000000000000000000000DF
:10012000C5030008C5030008C5030008C50300088F
:10013000C5030008000000000000000000000000EF
:10014000000000000000000000000000C5030008DF
:10015000C5030008C5030008C5030008C50300085F
:10016000C5030008C50300080000000000000000EF
:10017000000000000000000000000000000000007F
:1001800000000000C503000800000000000000009F
:04019000C50300089B
:1001940010B5054C237833B9044B13B10448AFF3BD
:1001A40000800123237010BD240000200000000003
:1001B400C803000808B5034B1BB103490348AFF358
:1001C400008008BD0000000028000020C8030008CB
:1001D40080B483B000AF00237B6002E07B6801330E
:1001E4007B607B68044A9342F8DD00BF00BF0C3794
:1001F400BD465DF8047B70473F420F0080B400AFFA
:100204001C4B1B681A681B4B1B6822F480321A6053
:10021400184B1B681A68174B1B6842F480321A602B
:1002240000BF144B1B681B6803F40033002BF8D089
:10023400114B1B681A68104B1B6822F003021A60EA
:100244000D4B1B681A680C4B1B6842F001021A60C4
:1002540000BF094B1B681B68084B1B681A68074BD7
:100264001B6842F001021A6000BFBD465DF8047BC2
:10027400704700BF00000020040000200800002098
:1002840080B400AF124B1B681A68114B1B6842F014
:1002940001021A600E4B1B681A680D4B1B6822F092
:1002A4000C021A600B4B1B681A680A4B1B6822F07D
:1002B4000C021A60074B1B681A68064B1B6842F055
:1002C40008021A6000BFBD465DF8047B704700BF9A
:1002D4000C0000201800002080B400AF0B4B1B68FA
:1002E4001B6803F00203002B07D0094B1B681B6833
:1002F400074B1B6800221A60F0E7054B1B681A685D
:10030400034B1B6842F001021A60E7E7100000206B
:100314001400002080B500AFFFF770FFFFF7B0FFB7
:10032400FFF7DAFF0023184680BD00BF70B50D4DFE
:100334000D4C641BA4100026A64209D10B4D0C4C95
:1003440000F040F8641BA4100026A64205D170BD3D
:1003540055F8043B98470136EEE755F8043B9847B7
:100364000136F2E7E0030008E0030008E0030008B8
:10037400E4030008DFF830D00C480D490D4A00238F
:1003840002E0D458C4500433C4188C42F9D30A4A46
:100394000A4C002301E013600432A242FBD3FFF7AE
:1003A400C5FFFFF7B7FF70470000012000000020E1
:1003B40024000020E803000824000020400000205E
:1003C400FEE70000F8B500BFF8BC08BC9E467047C5
:0C03D400F8B500BFF8BC08BC9E4670479E
:0403E000B901000857
:0403E4009501000877
:1003E800003802400838024030380240000002401D
:1003F80010000240140002400C00024010E000E02F
:0404080014E000E01C
:040000050800037973
:00000001FF
