:020000040800F2
:100000000000012085030008D1030008D103000887
:10001000D1030008D1030008D1030008000000004C
:10002000000000000000000000000000D1030008F4
:10003000D103000800000000D1030008D10300082C
:10004000D1030008D1030008D1030008D103000840
:10005000D1030008D1030008D1030008D103000830
:10006000D1030008D1030008D1030008D103000820
:10007000D1030008D1030008D1030008D103000810
:10008000D1030008D1030008D103000800000000DC
:10009000000000000000000000000000D103000884
:1000A000D1030008D1030008D1030008D1030008E0
:1000B000D1030008D1030008D1030008D1030008D0
:1000C000D1030008D1030008D1030008D1030008C0
:1000D000D1030008D1030008D1030008000000008C
:1000E000D1030008D1030008D1030008000000007C
:1000F000000000000000000000000000D103000824
:1001000000000000D1030008D1030008D10300085B
:1001100000000000000000000000000000000000DF
:10012000D1030008D1030008D1030008D10300085F
:10013000D1030008000000000000000000000000E3
:10014000000000000000000000000000D1030008D3
:10015000D1030008D1030008D1030008D10300082F
:10016000D1030008D10300080000000000000000D7
:10017000000000000000000000000000000000007F
:1001800000000000D1030008000000000000000093
:04019000D10300088F
:1001940010B5054C237833B9044B13B10448AFF3BD
:1001A40000800123237010BD240000200000000003
:1001B400D403000808B5034B1BB103490348AFF34C
:1001C400008008BD0000000028000020D4030008BF
:1001D40080B400AF0C4B1B681A680B4B1B6842F0D1
:1001E40005021A60094B1B68094A1A6000BF064BD6
:1001F4001B681B6803F48033002BF8D000BF00BFDA
:10020400BD465DF8047B70471C00002020000020E0
:100214002FEC010080B400AF1C4B1B681A681B4B09
:100224001B6822F480321A60184B1B681A68174B3B
:100234001B6842F480321A6000BF144B1B681B68B1
:1002440003F40033002BF8D0114B1B681A68104BD1
:100254001B6822F003021A600D4B1B681A680C4BD2
:100264001B6842F001021A6000BF094B1B681B683F
:10027400084B1B681A68074B1B6842F001021A609E
:1002840000BFBD465DF8047B704700BF000000203E
:10029400040000200800002080B400AF124B1B684B
:1002A4001A68114B1B6842F001021A600E4B1B685E
:1002B4001A680D4B1B6822F00C021A600B4B1B686A
:1002C4001A680A4B1B6822F00C021A60074B1B6861
:1002D4001A68064B1B6842F008021A6000BFBD464C
:1002E4005DF8047B704700BF0C000020180000205C
:1002F40080B500AF094B1B681A68084B1B6842F0B5
:1003040001021A60FFF764FF044B1B681B68034B70
:100314001B6800221A60FFF75BFFEBE71400002064
:1003240080B500AFFFF776FFFFF7B6FFFFF7E0FFFA
:100334000023184680BD00BF70B50D4D0D4C641BE5
:10034400A4100026A64209D10B4D0C4C00F040F835
:10035400641BA4100026A64205D170BD55F8043BC9
:1003640098470136EEE755F8043B98470136F2E723
:10037400EC030008EC030008EC030008F003000899
:10038400DFF830D00C480D490D4A002302E0D45860
:10039400C4500433C4188C42F9D30A4A0A4C0023CB
:1003A40001E013600432A242FBD3FFF7C5FFFFF75D
:1003B400B7FF704700000120000000202400002047
:1003C400F40300082400002040000020FEE70000A1
:1003D400F8B500BFF8BC08BC9E467047F8B500BF2E
:0803E400F8BC08BC9E467047FE
:0403EC00B90100084B
:0403F000950100086B
:1003F4000038024008380240303802400000024011
:1004040010000240140002400C00024010E000E022
:0404140014E000E010
:040000050800038567
:00000001FF
