:020000040800F2
:100000000000012045050008910500089105000841
:100010009105000891050008910500080000000006
:100020000000000000000000000000009105000832
:1000300091050008000000009105000891050008E6
:100040009105000891050008910500089105000838
:100050009105000891050008910500089105000828
:100060009105000891050008910500089105000818
:100070009105000891050008910500089105000808
:100080009105000891050008910500080000000096
:1000900000000000000000000000000091050008C2
:1000A00091050008910500089105000891050008D8
:1000B00091050008910500089105000891050008C8
:1000C00091050008910500089105000891050008B8
:1000D0009105000891050008910500080000000046
:1000E0009105000891050008910500080000000036
:1000F0000000000000000000000000009105000862
:100100000000000091050008910500089105000815
:1001100000000000000000000000000000000000DF
:100120009105000891050008910500089105000857
:100130009105000800000000000000000000000021
:100140000000000000000000000000009105000811
:100150009105000891050008910500089105000827
:100160009105000891050008000000000000000053
:10017000000000000000000000000000000000007F
:1001800000000000910500080000000000000000D1
:0401900091050008CD
:1001940010B5054C237833B9044B13B10448AFF3BD
:1001A40000800123237010BD240000200000000003
:1001B4009405000808B5034B1BB103490348AFF38A
:1001C400008008BD000000002800002094050008FD
:1001D40080B483B000AF00237B6002E07B6801330E
:1001E4007B607B68044A9342F8DD00BF00BF0C3794
:1001F400BD465DF8047B70473F420F0080B400AFFA
:100204001A4B1B681A68194B1B6822F480321A6057
:10021400164B1B681A68154B1B6842F480321A602F
:1002240000BF124B1B681B68114B1B681A68104BEC
:100234001B6802F003021A600D4B1B681A680C4B12
:100244001B6842F001021A6000BF094B1B681B685F
:10025400084B1B681A68074B1B6842F007021A60B8
:1002640000BFBD465DF8047B704700BF000000205E
:10027400040000200800002080B400AF164B1B6867
:100284001968154B1A68154B0B431360144B1B6804
:100294001968134B1A68114B0B4313600E4B1B6800
:1002A4001A680D4B1B6822F003021A600D4B1B6881
:1002B4001A680C4B1B6822F003021A60094B1B6876
:1002C4001A68084B1B6842F002021A6000BFBD4660
:1002D4005DF8047B704700BF0C00002055550500F5
:1002E400140000202000002080B582B000AF00235D
:1002F4007B60784B1B681B6803F00103012BF8D16A
:100304007B6801337B6000BF7B68012B2CD1724B6F
:100314001B681A68704B1B6842F002021A606F4B2C
:100324001B681A686D4B1B6842F001021A60FFF7E4
:100334004FFFFFF74DFF684B1B681B68664B1B683C
:1003440000221A60654B1B681B68644B1B68002203
:100354001A60604B1B681B6803F00103012BD6D1A4
:100364007B6801337B60B3E07B68032B24D15A4B59
:100374001B681B68584A12686FEA13436FEA034309
:100384001360564B1B681B68544A12686FEA134388
:100394006FEA03431360FFF71BFF4F4B1B681B6897
:1003A4004D4B1B6800221A604C4B1B681B684B4B5F
:1003B4001B6800221A609CE77B68032B20D1464B04
:1003C4001B681A68444B1B6842F00F021A60434BC7
:1003D4001B681A68414B1B6842F00F021A60FFF752
:1003E400F7FE3D4B1B681B683B4B1B6800221A60E1
:1003F4003A4B1B681B68394B1B6800221A6078E76C
:100404007B68042B31D101233B601AE0324B1B681B
:100414001A6801213B6801FA03F319462E4B1B6845
:100424000A431A602D4B1B681B682C4A12686FEA3A
:1004340013436FEA03431360FFF7CAFE3B680133BB
:100444003B603B680F2BE1DDFFF7C2FE224B1B68CC
:100454001B68214B1B6800221A60204B1B681B6819
:100464001E4B1B6800221A6043E77B68052B7FF450
:1004740040AF10233B601AE0174B1B681A68012138
:100484003B6801FA03F31946134B1B680A431A60CD
:10049400124B1B681B68114A12686FEA13436FEA18
:1004A40003431360FFF794FE3B68013B3B603B68EA
:1004B400002BE1DC084B1B681B68074B1B68002200
:1004C4001A60064B1B681B68044B1B6800221A60E9
:1004D4000FE700BF1C0000201000002018000020BF
:1004E40080B500AFFFF78AFEFFF7C6FEFFF7FCFEFC
:1004F4000023184680BD00BF70B50D4D0D4C641B24
:10050400A4100026A64209D10B4D0C4C00F040F873
:10051400641BA4100026A64205D170BD55F8043B07
:1005240098470136EEE755F8043B98470136F2E761
:10053400AC050008AC050008AC050008B0050008CF
:10054400DFF830D00C480D490D4A002302E0D4589E
:10055400C4500433C4188C42F9D30A4A0A4C002309
:1005640001E013600432A242FBD3FFF7C5FFFFF79B
:10057400B7FF704700000120000000202400002085
:10058400B40500082400002040000020FEE700001D
:10059400F8B500BFF8BC08BC9E467047F8B500BF6C
:0805A400F8BC08BC9E4670473C
:0405AC00B901000889
:0405B00095010008A9
:1005B400003802400838024030380240000002404F
:1005C40014000240000402401404024010000240DF
:0405D4000C000240D5
:0400000508000545A5
:00000001FF
