:020000040800F2
:10000000000001200D0300085903000859030008EF
:1000100059030008590300085903000800000000B4
:10002000000000000000000000000000590300086C
:100030005903000800000000590300085903000894
:100040005903000859030008590300085903000820
:100050005903000859030008590300085903000810
:100060005903000859030008590300085903000800
:1000700059030008590300085903000859030008F0
:100080005903000859030008590300080000000044
:1000900000000000000000000000000059030008FC
:1000A00059030008590300085903000859030008C0
:1000B00059030008590300085903000859030008B0
:1000C00059030008590300085903000859030008A0
:1000D00059030008590300085903000800000000F4
:1000E00059030008590300085903000800000000E4
:1000F000000000000000000000000000590300089C
:1001000000000000590300085903000859030008C3
:1001100000000000000000000000000000000000DF
:10012000590300085903000859030008590300083F
:10013000590300080000000000000000000000005B
:10014000000000000000000000000000590300084B
:10015000590300085903000859030008590300080F
:1001600059030008590300080000000000000000C7
:10017000000000000000000000000000000000007F
:10018000000000005903000800000000000000000B
:040190005903000807
:1001940010B5054C237833B9044B13B10448AFF3BD
:1001A40000800123237010BD140000200000000013
:1001B4005C03000808B5034B1BB103490348AFF3C4
:1001C400008008BD00000000180000205C03000847
:1001D40080B500AF00F005F800F044F800F05EF8D8
:1001E400FCE780B400AF1C4B1B681A681A4B1B68F1
:1001F40022F480321A60184B1B681A68164B1B686D
:1002040042F480321A6000BF134B1B681B6803F46E
:100214000033002BF8D0114B1B681A680F4B1B6876
:1002240022F003021A600D4B1B681A680B4B1B6803
:1002340042F001021A6000BF084B1B681B68084BA0
:100244001B681A68064B1B6842F001021A6000BF63
:10025400BD465DF8047B70470000002004000020C8
:100264000800002080B400AF0A4B1B681A68094BD1
:100274001B6842F480521A60074B1B681A68064BCD
:100284001B6842F040021A6000BFBD465DF8047B63
:10029400704700BF0C0000201000002080B400AFA5
:1002A400064B1B681A68054B1B6842F040021A6033
:1002B40000BFBD465DF8047B704700BF10000020FE
:1002C40070B50D4D0D4C641BA4100026A64209D137
:1002D4000B4D0C4C00F040F8641BA4100026A64201
:1002E40005D170BD55F8043B98470136EEE755F843
:1002F400043B98470136F2E77403000874030008CE
:100304007403000878030008DFF830D00C480D4966
:100314000D4A002302E0D458C4500433C4188C425C
:10032400F9D30A4A0A4C002301E013600432A242C2
:10033400FBD3FFF7C5FFFFF74BFF70470000012019
:1003440000000020140000207C030008140000209A
:1003540030000020FEE70000F8B500BFF8BC08BC80
:100364009E467047F8B500BFF8BC08BC9E4670476F
:04037400B9010008C3
:0403780095010008E3
:10037C000038024008380240303802400000024089
:04038C001400024017
:040000050800030DDF
:00000001FF
