:020000040800F2
:100000000000012085030008D1030008D103000887
:10001000D1030008D1030008D1030008000000004C
:10002000000000000000000000000000D1030008F4
:10003000D103000800000000D1030008D10300082C
:10004000D1030008D1030008D1030008D103000840
:10005000D1030008D1030008D1030008D103000830
:10006000D1030008D1030008D1030008D103000820
:10007000D1030008D1030008D1030008D103000810
:10008000D1030008D1030008D103000800000000DC
:10009000000000000000000000000000D103000884
:1000A000D1030008D1030008D1030008D1030008E0
:1000B000D1030008D1030008D1030008D1030008D0
:1000C000D1030008D1030008D1030008D1030008C0
:1000D000D1030008D1030008D1030008000000008C
:1000E000D1030008D1030008D1030008000000007C
:1000F000000000000000000000000000D103000824
:1001000000000000D1030008D1030008D10300085B
:1001100000000000000000000000000000000000DF
:10012000D1030008D1030008D1030008D10300085F
:10013000D1030008000000000000000000000000E3
:10014000000000000000000000000000D1030008D3
:10015000D1030008D1030008D1030008D10300082F
:10016000D1030008D10300080000000000000000D7
:10017000000000000000000000000000000000007F
:1001800000000000D1030008000000000000000093
:04019000D10300088F
:1001940010B5054C237833B9044B13B10448AFF3BD
:1001A40000800123237010BD000000200000000027
:1001B400D403000808B5034B1BB103490348AFF34C
:1001C400008008BD0000000004000020D4030008E3
:1001D40080B400AF084B1B68074A43F01003136058
:1001E400064B1B68054A43F00103136000BFBD467C
:1001F4005DF8047B704700BF443802403038024049
:1002040080B400AF114B1B68104A1B0D1B05136013
:100214000E4B1B680D4A43F4002313600C4B1B6800
:100224000B4A1B0D1B051360094B1B68084A43F45A
:1002340000231360074B1B68064A43F070031360E6
:1002440000BFBD465DF8047B704700BF000002405C
:10025400080002402400024080B400AF1D4B1B681C
:100264001C4A23F4FF5323F01F031360194B1B682C
:10027400184A43F400531360174B1B68164A23F4BF
:100284007F5323F03F031360134B1B68124A43F45C
:1002940000531360114B1B68104A43F004031360AE
:1002A4000E4B1B680D4A43F4CE631360094B1B6865
:1002B400084A43F00803136000BF094B1B6803F0AE
:1002C4008003002BF9D000BF00BFBD465DF8047B5E
:1002D400704700BF0C10014010100140081001408D
:1002E4000010014080B400AF0A4B61221A6000BFC5
:1002F400094B1B6803F04003002BF9D0064B1B6825
:10030400054A23F04003136000BFBD465DF8047B3B
:10031400704700BF041001400010014080B500AFD9
:10032400FFF756FFFFF76CFFFFF796FFFFF7DAFFC3
:100334000023184680BD00BF70B50D4D0D4C641BE5
:10034400A4100026A64209D10B4D0C4C00F040F835
:10035400641BA4100026A64205D170BD55F8043BC9
:1003640098470136EEE755F8043B98470136F2E723
:10037400EC030008EC030008EC030008F003000899
:10038400DFF830D00C480D490D4A002302E0D45860
:10039400C4500433C4188C42F9D30A4A0A4C0023CB
:1003A40001E013600432A242FBD3FFF7C5FFFFF75D
:1003B400B5FF70470000012000000020000000206D
:1003C400F4030008000000201C000020FEE70000E9
:1003D400F8B500BFF8BC08BC9E467047F8B500BF2E
:0803E400F8BC08BC9E467047FE
:0403EC00B90100084B
:0403F000950100086B
:040000050800038567
:00000001FF
