:020000040800F2
:10000000000001203D03000889030008890300085F
:100010008903000889030008890300080000000024
:10002000000000000000000000000000890300083C
:100030008903000800000000890300088903000804
:100040008903000889030008890300088903000860
:100050008903000889030008890300088903000850
:100060008903000889030008890300088903000840
:100070008903000889030008890300088903000830
:1000800089030008890300088903000800000000B4
:1000900000000000000000000000000089030008CC
:1000A0008903000889030008890300088903000800
:1000B00089030008890300088903000889030008F0
:1000C00089030008890300088903000889030008E0
:1000D0008903000889030008890300080000000064
:1000E0008903000889030008890300080000000054
:1000F000000000000000000000000000890300086C
:100100000000000089030008890300088903000833
:1001100000000000000000000000000000000000DF
:10012000890300088903000889030008890300087F
:10013000890300080000000000000000000000002B
:10014000000000000000000000000000890300081B
:10015000890300088903000889030008890300084F
:100160008903000889030008000000000000000067
:10017000000000000000000000000000000000007F
:1001800000000000890300080000000000000000DB
:0401900089030008D7
:1001940010B5054C237833B9044B13B10448AFF3BD
:1001A40000800123237010BD1C000020000000000B
:1001B4008C03000808B5034B1BB103490348AFF394
:1001C400008008BD00000000200000208C0300080F
:1001D40080B400AF1C4B1B681A681B4B1B6822F4CD
:1001E40080321A60184B1B681A68174B1B6842F45C
:1001F40080321A6000BF144B1B681B6803F4003381
:10020400002BF8D0114B1B681A68104B1B6822F0A6
:1002140003021A600D4B1B681A680C4B1B6842F0F2
:1002240001021A6000BF094B1B681B68084B1B685E
:100234001A68074B1B6842F001021A6000BFBD46F2
:100244005DF8047B704700BF00000020040000201C
:100254000800002080B400AF0E4B1B681A680D4BD9
:100264001B6842F001021A600A4B1B681A68094BAA
:100274001B6822F00C021A60074B1B681A68064BB5
:100284001B6842F008021A6000BFBD465DF8047B9B
:10029400704700BF0C0000201800002080B400AF9D
:1002A4000B4B1B681B6803F00203002B08D0094B9F
:1002B4001B681A68074B1B6842F001021A60EFE7DB
:1002C400044B1B681B68034B1B6800221A60E7E79A
:1002D400140000201000002080B500AFFFF778FF65
:1002E400FFF7B8FFFFF7DAFF0023184680BD00BF11
:1002F40070B50D4D0D4C641BA4100026A64209D107
:100304000B4D0C4C00F040F8641BA4100026A642D0
:1003140005D170BD55F8043B98470136EEE755F812
:10032400043B98470136F2E7A4030008A40300083D
:10033400A4030008A8030008DFF830D00C480D49D6
:100344000D4A002302E0D458C4500433C4188C422C
:10035400F9D30A4A0A4C002301E013600432A24292
:10036400FBD3FFF7C5FFFFF7B7FF7047000001207D
:10037400000000201C000020AC0300081C0000202A
:1003840038000020FEE70000F8B500BFF8BC08BC48
:100394009E467047F8B500BFF8BC08BC9E4670473F
:0403A400B901000893
:0403A80095010008B3
:1003AC000038024008380240303802400000024059
:0C03BC0014000240100002400C0002403F
:040000050800033DAF
:00000001FF
