:020000040800F2
:1000000000000120DD03000829040008290400087D
:100010002904000829040008290400080000000041
:10002000000000000000000000000000290400089B
:100030002904000800000000290400082904000821
:1000400029040008290400082904000829040008DC
:1000500029040008290400082904000829040008CC
:1000600029040008290400082904000829040008BC
:1000700029040008290400082904000829040008AC
:1000800029040008290400082904000800000000D1
:10009000000000000000000000000000290400082B
:1000A000290400082904000829040008290400087C
:1000B000290400082904000829040008290400086C
:1000C000290400082904000829040008290400085C
:1000D0002904000829040008290400080000000081
:1000E0002904000829040008290400080000000071
:1000F00000000000000000000000000029040008CB
:100100000000000029040008290400082904000850
:1001100000000000000000000000000000000000DF
:1001200029040008290400082904000829040008FB
:10013000290400080000000000000000000000008A
:10014000000000000000000000000000290400087A
:1001500029040008290400082904000829040008CB
:100160002904000829040008000000000000000025
:10017000000000000000000000000000000000007F
:10018000000000002904000800000000000000003A
:040190002904000836
:1001940010B5054C237833B9044B13B10448AFF3BD
:1001A40000800123237010BD2C00002000000000FB
:1001B4002C04000808B5034B1BB103490348AFF3F3
:1001C400008008BD00000000300000202C0400085E
:1001D40080B400AF224B1B681B68214A12685B0C79
:1001E4005B0413601E4B1B681A681D4B1B6842F4AA
:1001F40080321A6000BF1A4B1B681B6803F400337B
:10020400002BF8D0174B1B681A68164B1B6822F09A
:1002140003021A60134B1B681A68124B1B6842F0E6
:1002240001021A6000BF0F4B1B681B6803F0010337
:10023400002BF8D00C4B1B681A680B4B1B6842F45C
:1002440080221A60094B1B681A68084B1B6842F02D
:1002540001021A6000BFBD465DF8047B704700BF11
:1002640000000020040000200C00002008000020F2
:1002740080B400AF064B1B681A68054B1B6842F03C
:1002840001021A6000BFBD465DF8047B704700BFE1
:100294001000002080B400AF254B1B681A68244B63
:1002A4001B6822F001021A60214B1B681A68204B5C
:1002B4001B6842F002021A601D4B1B681A681C4B33
:1002C4001B6822F007021A60194B1B681A68184B46
:1002D4001B6842F080021A60164B1B6800221A60E9
:1002E400154B1B684FF47A721A60144B1B6840F666
:1002F400C4121A600E4B1B681A680D4B1B6842F03F
:1003040001021A6000BF0E4B1B681B6803F0010357
:10031400002BF8D00A4B1B681A68094B1B6822F0A3
:1003240001021A6000BFBD465DF8047B704700BF40
:1003340018000020200000202400002028000020B5
:100344001C00002080B500AF0A4B1B681A68094BDB
:100354001B6842F001021A60FFF79CFF054B1B6803
:100364001B68044B1B6800221A60FFF793FF00BF51
:1003740080BD00BF1400002080B500AFFFF728FF48
:10038400FFF776FFFFF786FFFFF7DCFFFCE700BF10
:1003940070B50D4D0D4C641BA4100026A64209D166
:1003A4000B4D0C4C00F040F8641BA4100026A64230
:1003B40005D170BD55F8043B98470136EEE755F872
:1003C400043B98470136F2E744040008440400085B
:1003D4004404000848040008DFF830D00C480D49F4
:1003E4000D4A002302E0D458C4500433C4188C428C
:1003F400F9D30A4A0A4C002301E013600432A242F2
:10040400FBD3FFF7C5FFFFF7B7FF704700000120DC
:10041400000000202C0000204C0400082C000020C8
:1004240048000020FEE70000F8B500BFF8BC08BC97
:100434009E467047F8B500BFF8BC08BC9E4670479E
:04044400B9010008F2
:040448009501000812
:10044C00003802400838024030380240443802403C
:10045C0000000240140002400048014010480140D6
:0C046C0024480140284801402C48014071
:04000005080003DD0F
:00000001FF
