:020000040800F2
:1000000000000120410600088D0600088D0600084A
:100010008D0600088D0600088D060008000000000F
:100020000000000000000000000000008D06000835
:100030008D060008000000008D0600088D060008EF
:100040008D0600088D0600088D0600088D06000844
:100050008D0600088D0600088D0600088D06000834
:100060008D0600088D0600088D0600088D06000824
:100070008D0600088D0600088D0600088D06000814
:100080008D0600088D0600088D060008000000009F
:100090000000000000000000000000008D060008C5
:1000A0008D0600088D0600088D0600088D060008E4
:1000B0008D0600088D0600088D0600088D060008D4
:1000C0008D0600088D0600088D0600088D060008C4
:1000D0008D0600088D0600088D060008000000004F
:1000E0008D0600088D0600088D060008000000003F
:1000F0000000000000000000000000008D06000865
:10010000000000008D0600088D0600088D0600081E
:1001100000000000000000000000000000000000DF
:100120008D0600088D0600088D0600088D06000863
:100130008D06000800000000000000000000000024
:100140000000000000000000000000008D06000814
:100150008D0600088D0600088D0600088D06000833
:100160008D0600088D060008000000000000000059
:10017000000000000000000000000000000000007F
:10018000000000008D0600080000000000000000D4
:040190008D060008D0
:1001940010B5054C237833B9044B13B10448AFF3BD
:1001A40000800123237010BD000000200000000027
:1001B4009006000808B5034B1BB103490348AFF38D
:1001C400008008BD00000000040000209006000824
:1001D40080B400AF00BF144B1B6803F00203002B74
:1001E400F9D0124B1B68114A43F400331360104BCF
:1001F4001B680F4A43F0020313600C4B1B680B4A45
:1002040043F0100313600A4B1B68094A43F00103CF
:100214001360064B1B68054A43F48073136000BFE8
:10022400BD465DF8047B7047003802404438024004
:100234003038024080B400AF1A4B1B68194A43F4AB
:1002440000331360184B1B68174A43F00303136011
:10025400164B1B68154A1B0D1B051360134B1B68BB
:10026400124A43F400231360114B1B68104A1B0D00
:100274001B0513600E4B1B680D4A43F400231360E7
:100284000C4B1B680B4A43F070031360074B1B684D
:10029400064A43F00303136000BFBD465DF8047BC8
:1002A400704700BF000402402404024000000240E2
:1002B400080002402400024080B400AF2C4B1B68AD
:1002C4002B4A23F0010313602A4B1B68294A23F0AD
:1002D4000F031360274B1B68264A23F003031360A4
:1002E400244B1B68234A43F060031360214B1B68B3
:1002F400204A43F0040313601F4B07221A601D4B6E
:100304001B681C4A43F0800313601C4B4FF4486283
:100314001A601B4B64221A601A4B00221A60144B99
:100324001B68134A23F003031360114B1B68104A24
:1003340023F00F0313600E4B1B680D4A43F00103B7
:1003440013600C4B1B680B4A43F0080313600E4BFD
:100354001B680D4A43F0030313600C4B1B680B4AE4
:1003640043F00103136000BFBD465DF8047B704792
:100374002044014018440140344401402C440140CD
:1003840028440140244401401444014000440140F5
:1003940080B400AF1B4B00221A601B4B1B681A4A27
:1003A40043F001031360174B1B68164A23F0407394
:1003B4001360144B1B68134A43F000731360124B11
:1003C4001B68114A23F0020313600F4B1B680E4A8B
:1003D40043F0804313600C4B1B680B4A23F4006307
:1003E40013600A4B1B68094A23F080031360074B10
:1003F4001B68064A43F00103136000BFBD465DF865
:10040400047B704704200140082001401020014073
:1004140080B483B000AF00237B600B4B1B680A4A97
:1004240043F08043136000BF084B1B6803F00203D2
:10043400002BF9D0064B1B687B607B6818460C3791
:10044400BD465DF8047B7047082001400020014050
:100454004C20014080B483B000AF0346FB71254BB0
:100464001B68244A23F4FF5323F01F031360214B1A
:100474001B68204A43F4005313601F4B1B681E4A39
:1004840023F47F5323F03F0313601B4B1B681A4A6A
:1004940043F400531360194B1B68184A43F00403D8
:1004A4001360164B1B68154A43F4CE631360114B5B
:1004B4001B68104A43F00803136000BF104B1B680D
:1004C40003F08003002BF9D00E4AFB79136000BFC0
:1004D4000B4B1B6803F04003002BF9D0084B1B683F
:1004E400074A23F07F03136000BF0C37BD465DF855
:1004F400047B70470C1001401010014008100140AB
:10050400001001400410014080B582B000AFFFF735
:100514005FFEFFF73DFFFFF7CFFEFFF78BFEFFF710
:1005240077FF78607B6841337B6000BF2C4B1B688E
:1005340003F00103002BF9D0294B1B68284A23F050
:1005440003031360274A7B6813607B68264AA2FB77
:1005540003239B09DBB23033DBB21846FFF77AFF83
:100564007B68224AA2FB03235909214BA3FB0123E5
:10057400DA0813469B0013445B00CA1AD3B2303323
:10058400DBB21846FFF766FF7B68194AA2FB032318
:10059400D908174BA3FB0123DA0813469B00134425
:1005A4005B00CA1AD3B23033DBB21846FFF752FFEE
:1005B40079680F4BA3FB0123DA0813469B0013440D
:1005C4005B00CA1AD3B23033DBB21846FFF742FFDE
:1005D4000A20FFF73FFF0D20FFF73CFF9FE700BF16
:1005E4001044014034440140D34D62101F85EB5147
:1005F400CDCCCCCC70B50D4D0D4C641BA410002695
:10060400A64209D10B4D0C4C00F040F8641BA41019
:100614000026A64205D170BD55F8043B9847013623
:10062400EEE755F8043B98470136F2E7A8060008C0
:10063400A8060008A8060008AC060008DFF830D0B9
:100644000C480D490D4A002302E0D458C450043329
:10065400C4188C42F9D30A4A0A4C002301E01360FF
:100664000432A242FBD3FFF7C5FFFFF74DFF7047EB
:10067400000001200000002000000020B006000857
:10068400000000201C000020FEE70000F8B500BFB9
:10069400F8BC08BC9E467047F8B500BFF8BC08BC5F
:0406A4009E467047B7
:0406A800B90100088C
:0406AC0095010008AC
:0400000508000641A8
:00000001FF
