:020000040800F2
:1000000000000120110400085D0400085D040008E0
:100010005D0400085D0400085D04000800000000A5
:100020000000000000000000000000005D04000867
:100030005D040008000000005D0400085D04000885
:100040005D0400085D0400085D0400085D0400080C
:100050005D0400085D0400085D0400085D040008FC
:100060005D0400085D0400085D0400085D040008EC
:100070005D0400085D0400085D0400085D040008DC
:100080005D0400085D0400085D0400080000000035
:100090000000000000000000000000005D040008F7
:1000A0005D0400085D0400085D0400085D040008AC
:1000B0005D0400085D0400085D0400085D0400089C
:1000C0005D0400085D0400085D0400085D0400088C
:1000D0005D0400085D0400085D04000800000000E5
:1000E0005D0400085D0400085D04000800000000D5
:1000F0000000000000000000000000005D04000897
:10010000000000005D0400085D0400085D040008B4
:1001100000000000000000000000000000000000DF
:100120005D0400085D0400085D0400085D0400082B
:100130005D04000800000000000000000000000056
:100140000000000000000000000000005D04000846
:100150005D0400085D0400085D0400085D040008FB
:100160005D0400085D0400080000000000000000BD
:10017000000000000000000000000000000000007F
:10018000000000005D040008000000000000000006
:040190005D04000802
:1001940010B5054C237833B9044B13B10448AFF3BD
:1001A40000800123237010BD1C000020000000000B
:1001B4006004000808B5034B1BB103490348AFF3BF
:1001C400008008BD0000000020000020600400083A
:1001D40080B483B000AF00237B6002E07B6801330E
:1001E4007B607B68044A9342F8DD00BF00BF0C3794
:1001F400BD465DF8047B70479F86010080B400AF64
:100204001E4B1B681A681D4B1B6802F480321A606F
:100214001A4B1B681A68194B1B6842F480321A6027
:1002240000BF164B1B681B68154B1B681A68144BE0
:100234001B6802F003021A60114B1B681A68104B0A
:100244001B6842F001021A6000BF0D4B1B681B685B
:100254000C4B1B681A680B4B1B6842F001021A60B6
:10026400084B1B681A68074B1B6842F002021A60AD
:1002740000BFBD465DF8047B704700BF000000204E
:10028400040000200800002080B582B000AF0023E5
:100294007B601FE0134B1B681A6801217B6801FA1D
:1002A40003F319460F4B1B680A431A600E4B1B6875
:1002B4001A6801217B6801FA03F319460A4B1B688B
:1002C4000A431A60FFF784FF7B6801337B607B6815
:1002D40001337B607B68132BDCDD00BF00BF083774
:1002E400BD4680BD0C0000201400002080B582B003
:1002F40000AF00237B6028E02A4B1B681A680121A9
:100304007B6801FA03F31946264B1B680A431A60FB
:1003140000233B600EE0244B1B681A6801213B68F4
:1003240001FA03F31946204B1B680A431A603B6821
:1003340001333B603A687B689A42ECDDFFF748FF83
:10034400FFF746FF7B6801337B607B68092BD3DDB5
:1003540000237B601EE0134B1B681B68114B1B685A
:1003640000221A6000233B6009E00F4B1B681B68E6
:100374000D4B1B6800221A603B6801333B603A68EE
:100384007B689A42F1DDFFF723FFFFF721FF7B68CB
:1003940001337B607B68092BDDDD00BF00BF0837BC
:1003A400BD4680BD100000201800002080B500AFBD
:1003B400FFF724FFFFF768FFFFF798FFFFF708FF39
:1003C400FAE700BF70B50D4D0D4C641BA410002658
:1003D400A64209D10B4D0C4C00F040F8641BA4104C
:1003E4000026A64205D170BD55F8043B9847013656
:1003F400EEE755F8043B98470136F2E77804000825
:1004040078040008780400087C040008DFF830D081
:100414000C480D490D4A002302E0D458C45004335B
:10042400C4188C42F9D30A4A0A4C002301E0136031
:100434000432A242FBD3FFF7C5FFFFF7B7FF7047B3
:1004440000000120000000201C000020800400089F
:100454001C00002038000020FEE70000F8B500BFB3
:10046400F8BC08BC9E467047F8B500BFF8BC08BC91
:040474009E467047E9
:04047800B9010008BE
:04047C0095010008DE
:100480000038024008380240303802400000024084
:0C0490001400024000040240140402406A
:0400000508000411DA
:00000001FF
