:020000040800F2
:1000000000000120B90300080504000805040008E9
:1000100005040008050400080504000800000000AD
:1000200000000000000000000000000005040008BF
:10003000050400080000000005040008050400088D
:10004000050400080504000805040008050400086C
:10005000050400080504000805040008050400085C
:10006000050400080504000805040008050400084C
:10007000050400080504000805040008050400083C
:10008000050400080504000805040008000000003D
:10009000000000000000000000000000050400084F
:1000A000050400080504000805040008050400080C
:1000B00005040008050400080504000805040008FC
:1000C00005040008050400080504000805040008EC
:1000D00005040008050400080504000800000000ED
:1000E00005040008050400080504000800000000DD
:1000F00000000000000000000000000005040008EF
:1001000000000000050400080504000805040008BC
:1001100000000000000000000000000000000000DF
:10012000050400080504000805040008050400088B
:1001300005040008000000000000000000000000AE
:10014000000000000000000000000000050400089E
:10015000050400080504000805040008050400085B
:10016000050400080504000800000000000000006D
:10017000000000000000000000000000000000007F
:10018000000000000504000800000000000000005E
:04019000050400085A
:1001940010B5054C237833B9044B13B10448AFF3BD
:1001A40000800123237010BD000000200000000027
:1001B4000804000808B5034B1BB103490348AFF317
:1001C400008008BD000000000400002008040008AE
:1001D40080B400AF00BF0B4B1B6803F00203002B7D
:1001E400F9D0094B1B68084A43F400331360074BEA
:1001F4001B68064A43F00203136000BFBD465DF866
:10020400047B7047003802404438024030380240D2
:1002140080B400AF084B1B68074A43F400331360F3
:10022400064B1B68054A43F00303136000BFBD4639
:100234005DF8047B704700BF0004024024040240C0
:1002440080B400AF2D4B1B682C4A23F001031360CC
:100254002B4B1B682A4A23F00F031360284B1B689F
:10026400274A23F003031360254B1B68244A43F0F9
:1002740060031360224B1B68214A43F0040313609C
:10028400204B01221A601E4B1B681D4A43F0800359
:1002940013601D4B4FF4A0721A601C4B40F2E732FE
:1002A4001A601B4B00221A60144B1B68134A23F07C
:1002B40003031360114B1B68104A23F00F031360F0
:1002C4000E4B1B680D4A43F0010313600C4B1B6873
:1002D4000B4A43F0080313600E4B1B680D4A43F0AE
:1002E400030313600C4B1B680B4A43F001031360B8
:1002F40000BFBD465DF8047B704700BF2044014049
:1003040018440140344401402C4401402844014035
:1003140024440140144401400044014080B582B0AB
:1003240000AFFFF755FFFFF773FFFFF789FF4FF4A7
:10033400A0737B6012E000BF0A4B1B6803F001034B
:10034400002BF9D0074B1B68064A23F00303136004
:10035400054A7B6813607B68013B7B607B68002BEC
:10036400E9DCE4E7104401403444014070B50D4D2C
:100374000D4C641BA4100026A64209D10B4D0C4C55
:1003840000F040F8641BA4100026A64205D170BDFD
:1003940055F8043B98470136EEE755F8043B984777
:1003A4000136F2E7200400082004000820040008B5
:1003B40024040008DFF830D00C480D490D4A00230E
:1003C40002E0D458C4500433C4188C42F9D30A4A06
:1003D4000A4C002301E013600432A242FBD3FFF76E
:1003E400C5FFFFF79BFF70470000012000000020BD
:1003F4000000002028040008000000201C00002049
:10040400FEE70000F8B500BFF8BC08BC9E46704784
:0C041400F8B500BFF8BC08BC9E4670475D
:04042000B901000816
:040424009501000836
:04000005080003B933
:00000001FF
