:020000040800F2
:1000000000000120110300085D0300085D030008E3
:100010005D0300085D0300085D03000800000000A8
:100020000000000000000000000000005D03000868
:100030005D030008000000005D0300085D03000888
:100040005D0300085D0300085D0300085D03000810
:100050005D0300085D0300085D0300085D03000800
:100060005D0300085D0300085D0300085D030008F0
:100070005D0300085D0300085D0300085D030008E0
:100080005D0300085D0300085D0300080000000038
:100090000000000000000000000000005D030008F8
:1000A0005D0300085D0300085D0300085D030008B0
:1000B0005D0300085D0300085D0300085D030008A0
:1000C0005D0300085D0300085D0300085D03000890
:1000D0005D0300085D0300085D03000800000000E8
:1000E0005D0300085D0300085D03000800000000D8
:1000F0000000000000000000000000005D03000898
:10010000000000005D0300085D0300085D030008B7
:1001100000000000000000000000000000000000DF
:100120005D0300085D0300085D0300085D0300082F
:100130005D03000800000000000000000000000057
:100140000000000000000000000000005D03000847
:100150005D0300085D0300085D0300085D030008FF
:100160005D0300085D0300080000000000000000BF
:10017000000000000000000000000000000000007F
:10018000000000005D030008000000000000000007
:040190005D03000803
:1001940010B5054C237833B9044B13B10448AFF3BD
:1001A40000800123237010BD140000200000000013
:1001B4006003000808B5034B1BB103490348AFF3C0
:1001C400008008BD00000000180000206003000843
:1001D40080B400AF1C4B1B681A681B4B1B6822F4CD
:1001E40080321A60184B1B681A68174B1B6842F45C
:1001F40080321A6000BF144B1B681B6803F4003381
:10020400002BF8D0114B1B681A68104B1B6822F0A6
:1002140003021A600D4B1B681A680C4B1B6842F0F2
:1002240001021A6000BF094B1B681B68084B1B685E
:100234001A68074B1B6842F001021A6000BFBD46F2
:100244005DF8047B704700BF00000020040000201C
:100254000800002080B400AF0A4B1B681A68094BE1
:100264001B6842F480521A60074B1B681A68064BDD
:100274001B6842F040021A6000BFBD465DF8047B73
:10028400704700BF0C0000201000002080B400AFB5
:10029400064B1B681A68054B1B6842F040021A6043
:1002A40000BFBD465DF8047B704700BF100000200E
:1002B40080B500AFFFF78CFFFFF7CCFFFFF7E6FF39
:1002C400FCE700BF70B50D4D0D4C641BA410002657
:1002D400A64209D10B4D0C4C00F040F8641BA4104D
:1002E4000026A64205D170BD55F8043B9847013657
:1002F400EEE755F8043B98470136F2E77803000827
:1003040078030008780300087C030008DFF830D085
:100314000C480D490D4A002302E0D458C45004335C
:10032400C4188C42F9D30A4A0A4C002301E0136032
:100334000432A242FBD3FFF7C5FFFFF7B9FF7047B2
:1003440000000120000000201400002080030008A9
:100354001400002030000020FEE70000F8B500BFC4
:10036400F8BC08BC9E467047F8B500BFF8BC08BC92
:040374009E467047EA
:04037800B9010008BF
:04037C0095010008DF
:100380000038024008380240303802400000024085
:040390001400024013
:0400000508000311DB
:00000001FF
