:020000040800F2
:1000000000000120010400084D0400084D04000810
:100010004D0400084D0400084D04000800000000D5
:100020000000000000000000000000004D04000877
:100030004D040008000000004D0400084D040008B5
:100040004D0400084D0400084D0400084D0400084C
:100050004D0400084D0400084D0400084D0400083C
:100060004D0400084D0400084D0400084D0400082C
:100070004D0400084D0400084D0400084D0400081C
:100080004D0400084D0400084D0400080000000065
:100090000000000000000000000000004D04000807
:1000A0004D0400084D0400084D0400084D040008EC
:1000B0004D0400084D0400084D0400084D040008DC
:1000C0004D0400084D0400084D0400084D040008CC
:1000D0004D0400084D0400084D0400080000000015
:1000E0004D0400084D0400084D0400080000000005
:1000F0000000000000000000000000004D040008A7
:10010000000000004D0400084D0400084D040008E4
:1001100000000000000000000000000000000000DF
:100120004D0400084D0400084D0400084D0400086B
:100130004D04000800000000000000000000000066
:100140000000000000000000000000004D04000856
:100150004D0400084D0400084D0400084D0400083B
:100160004D0400084D0400080000000000000000DD
:10017000000000000000000000000000000000007F
:10018000000000004D040008000000000000000016
:040190004D04000812
:1001940010B5054C237833B9044B13B10448AFF3BD
:1001A40000800123237010BD000000200000000027
:1001B4005004000808B5034B1BB103490348AFF3CF
:1001C400008008BD00000000040000205004000866
:1001D40080B400AF084B1B68074A43F01003136058
:1001E400064B1B68054A43F00103136000BFBD467C
:1001F4005DF8047B704700BF443802403038024049
:1002040080B400AF114B1B68104A9B0D9B05136013
:100214000E4B1B680D4A43F4001313600C4B1B6810
:100224000B4A9B0D9B051360094B1B68084A43F45A
:1002340000131360074B1B68064A43F4E063136022
:1002440000BFBD465DF8047B704700BF000002405C
:10025400080002402400024080B400AF1C4B1B681D
:100264001B4A23F4FF5323F01F031360184B1B682E
:10027400174A43F400531360164B1B68154A23F4C2
:100284007F5323F03F031360124B1B68114A43F45E
:1002940000531360104B1B680F4A43F004031360B0
:1002A4000D4B1B680C4A43F4CE631360084B1B6868
:1002B400074A43F008031360054B1B68044A43F0E4
:1002C4000403136000BFBD465DF8047B704700BFA4
:1002D4000C100140101001400810014080B582B09C
:1002E40000AF0346FB711D4B1B681C4A1B0D1B050D
:1002F40013601A4B1B68194A43F400231360184B0C
:100304001B68174A1B0D1B051360154B1B68144A09
:1003140043F400231360134B1B68124A43F0700329
:100324001360FFF799FF00BF0F4B1B6803F08003B6
:10033400002BF9D00D4AFB79136000BF0A4B1B68F0
:1003440003F04003002BF9D0074B1B68064A23F047
:100354004003136000BF0837BD4680BD0000024063
:100364000800024024000240001001400410014033
:1003740080B582B000AFFFF72BFFFFF741FFFFF717
:100384006BFF00BF094B1B6803F02003002BF9D05F
:10039400064B1B68054A23F03F031360044B1B689C
:1003A400FB71FB791846FFF799FFEAE7001001405B
:1003B4000410014070B50D4D0D4C641BA4100026B3
:1003C400A64209D10B4D0C4C00F040F8641BA4105C
:1003D4000026A64205D170BD55F8043B9847013666
:1003E400EEE755F8043B98470136F2E76804000845
:1003F40068040008680400086C040008DFF830D0C2
:100404000C480D490D4A002302E0D458C45004336B
:10041400C4188C42F9D30A4A0A4C002301E0136041
:100424000432A242FBD3FFF7C5FFFFF7A1FF7047D9
:1004340000000120000000200000002070040008DB
:10044400000000201C000020FEE70000F8B500BFFB
:10045400F8BC08BC9E467047F8B500BFF8BC08BCA1
:040464009E467047F9
:04046800B9010008CE
:04046C0095010008EE
:0400000508000401EA
:00000001FF
