:020000040800F2
:100000000000012065030008B1030008B1030008E7
:10001000B1030008B1030008B103000800000000AC
:10002000000000000000000000000000B103000814
:10003000B103000800000000B1030008B10300088C
:10004000B1030008B1030008B1030008B1030008C0
:10005000B1030008B1030008B1030008B1030008B0
:10006000B1030008B1030008B1030008B1030008A0
:10007000B1030008B1030008B1030008B103000890
:10008000B1030008B1030008B1030008000000003C
:10009000000000000000000000000000B1030008A4
:1000A000B1030008B1030008B1030008B103000860
:1000B000B1030008B1030008B1030008B103000850
:1000C000B1030008B1030008B1030008B103000840
:1000D000B1030008B1030008B103000800000000EC
:1000E000B1030008B1030008B103000800000000DC
:1000F000000000000000000000000000B103000844
:1001000000000000B1030008B1030008B1030008BB
:1001100000000000000000000000000000000000DF
:10012000B1030008B1030008B1030008B1030008DF
:10013000B103000800000000000000000000000003
:10014000000000000000000000000000B1030008F3
:10015000B1030008B1030008B1030008B1030008AF
:10016000B1030008B1030008000000000000000017
:10017000000000000000000000000000000000007F
:1001800000000000B10300080000000000000000B3
:04019000B1030008AF
:1001940010B5054C237833B9044B13B10448AFF3BD
:1001A40000800123237010BD1C000020000000000B
:1001B400B403000808B5034B1BB103490348AFF36C
:1001C400008008BD0000000020000020B4030008E7
:1001D40080B483B000AF00237B6002E07B6801330E
:1001E4007B607B68044A9342F8DD00BF00BF0C3794
:1001F400BD465DF8047B70473F420F0080B400AFFA
:10020400194B1B681A68184B1B6822F480321A6059
:10021400154B1B681A68144B1B6842F480321A6031
:1002240000BF114B1B681B68104B1B681A680F4BEF
:100234001B6802F003021A600C4B1A680B4B1B6814
:1002440012681A6000BF094B1B681B68084B1B68C7
:100254001A68074B1B6842F001021A6000BFBD46D2
:100264005DF8047B704700BF0000002004000020FC
:100274000800002080B400AF124B1B681A68114BB1
:100284001B6842F004021A600E4B1B681A680D4B7F
:100294001B6822F003021A600B4B1B681A680A4B96
:1002A4001B6822F003021A60074B1B681A68064B8E
:1002B4001B6842F002021A6000BFBD465DF8047B71
:1002C400704700BF0C0000201800002080B500AF6C
:1002D400FFF794FFFFF7CEFF0D4B1B681B6803F07D
:1002E4000103002BF8D00B4B1B681A68094B1B68E1
:1002F40042F002021A60FFF76BFF064B1B681B6893
:10030400044B1B6800221A60FFF762FFE4E700BF9A
:10031400100000201400002070B50D4D0D4C641B1E
:10032400A4100026A64209D10B4D0C4C00F040F855
:10033400641BA4100026A64205D170BD55F8043BE9
:1003440098470136EEE755F8043B98470136F2E743
:10035400CC030008CC030008CC030008D003000839
:10036400DFF830D00C480D490D4A002302E0D45880
:10037400C4500433C4188C42F9D30A4A0A4C0023EB
:1003840001E013600432A242FBD3FFF7C5FFFFF77D
:100394009DFF704700000120000000201C00002089
:1003A400D40300081C00002038000020FEE70000F1
:1003B400F8B500BFF8BC08BC9E467047F8B500BF4E
:0803C400F8BC08BC9E4670471E
:0403CC00B90100086B
:0403D000950100088B
:1003D4000038024008380240303802400000024031
:0C03E40010000240140002400C00024017
:040000050800036587
:00000001FF
