:020000040800F2
:1000000000000120C50300081104000811040008C5
:100010001104000811040008110400080000000089
:1000200000000000000000000000000011040008B3
:100030001104000800000000110400081104000869
:10004000110400081104000811040008110400083C
:10005000110400081104000811040008110400082C
:10006000110400081104000811040008110400081C
:10007000110400081104000811040008110400080C
:100080001104000811040008110400080000000019
:100090000000000000000000000000001104000843
:1000A00011040008110400081104000811040008DC
:1000B00011040008110400081104000811040008CC
:1000C00011040008110400081104000811040008BC
:1000D00011040008110400081104000800000000C9
:1000E00011040008110400081104000800000000B9
:1000F00000000000000000000000000011040008E3
:100100000000000011040008110400081104000898
:1001100000000000000000000000000000000000DF
:10012000110400081104000811040008110400085B
:1001300011040008000000000000000000000000A2
:100140000000000000000000000000001104000892
:10015000110400081104000811040008110400082B
:100160001104000811040008000000000000000055
:10017000000000000000000000000000000000007F
:100180000000000011040008000000000000000052
:04019000110400084E
:1001940010B5054C237833B9044B13B10448AFF3BD
:1001A40000800123237010BD140000200000000013
:1001B4001404000808B5034B1BB103490348AFF30B
:1001C400008008BD0000000018000020140400088E
:1001D40080B483B000AF00237B6002E07B6801330E
:1001E4007B607B68044A9342F8DD00BF00BF0C3794
:1001F400BD465DF8047B70473F420F0080B400AFFA
:100204001C4B1B681A681B4B1B6822F480321A6053
:10021400184B1B681A68174B1B6842F480321A602B
:1002240000BF144B1B681B6803F40033002BF8D089
:10023400114B1B681A68104B1B6822F003021A60EA
:100244000D4B1B681A680C4B1B6842F001021A60C4
:1002540000BF094B1B681B68084B1B681A68074BD7
:100264001B6842F001021A6000BFBD465DF8047BC2
:10027400704700BF00000020040000200800002098
:1002840080B483B000AF00237B6000237B6011E067
:100294000D4B1B681A6801217B6801FA03F31946A8
:1002A400094B1B680A431A607B6801337B607B68D7
:1002B40001337B607B680F2BEADD00BF00BF0C3786
:1002C400BD465DF8047B70470C00002080B582B009
:1002D40000AF07237B6019E0204B1B681A680121DB
:1002E4007B6801FA03F319461C4B1B680A431A6026
:1002F400FFF76EFF194B1B681B68184B1B68002225
:100304001A60FFF765FF7B68013B7B607B68002B0D
:10031400E2DA00237B6019E0104B1B681A680121A4
:100324007B6801FA03F319460C4B1B680A431A60F5
:10033400FFF74EFF094B1B681B68084B1B68002224
:100344001A60FFF745FF7B6801337B607B68072BEE
:10035400E2DD00BF00BF0837BD4680BD10000020AD
:1003640080B500AFFFF74AFFFFF78AFFFFF7AEFF44
:10037400FFF72EFFFAE700BF70B50D4D0D4C641B5F
:10038400A4100026A64209D10B4D0C4C00F040F8F5
:10039400641BA4100026A64205D170BD55F8043B89
:1003A40098470136EEE755F8043B98470136F2E7E3
:1003B4002C0400082C0400082C0400083004000855
:1003C400DFF830D00C480D490D4A002302E0D45820
:1003D400C4500433C4188C42F9D30A4A0A4C00238B
:1003E40001E013600432A242FBD3FFF7C5FFFFF71D
:1003F400B7FF704700000120000000201400002017
:10040400340400081400002030000020FEE700003F
:10041400F8B500BFF8BC08BC9E467047F8B500BFED
:08042400F8BC08BC9E467047BD
:04042C00B90100080A
:04043000950100082A
:1004340000380240083802403038024000000240D0
:04044400140002405E
:04000005080003C527
:00000001FF
