:020000040800F2
:1000000000000120A1030008ED030008ED03000833
:10001000ED030008ED030008ED03000800000000F8
:10002000000000000000000000000000ED030008D8
:10003000ED03000800000000ED030008ED030008D8
:10004000ED030008ED030008ED030008ED030008D0
:10005000ED030008ED030008ED030008ED030008C0
:10006000ED030008ED030008ED030008ED030008B0
:10007000ED030008ED030008ED030008ED030008A0
:10008000ED030008ED030008ED0300080000000088
:10009000000000000000000000000000ED03000868
:1000A000ED030008ED030008ED030008ED03000870
:1000B000ED030008ED030008ED030008ED03000860
:1000C000ED030008ED030008ED030008ED03000850
:1000D000ED030008ED030008ED0300080000000038
:1000E000ED030008ED030008ED0300080000000028
:1000F000000000000000000000000000ED03000808
:1001000000000000ED030008ED030008ED03000807
:1001100000000000000000000000000000000000DF
:10012000ED030008ED030008ED030008ED030008EF
:10013000ED030008000000000000000000000000C7
:10014000000000000000000000000000ED030008B7
:10015000ED030008ED030008ED030008ED030008BF
:10016000ED030008ED03000800000000000000009F
:10017000000000000000000000000000000000007F
:1001800000000000ED030008000000000000000077
:04019000ED03000873
:1001940010B5054C237833B9044B13B10448AFF3BD
:1001A40000800123237010BD000000200000000027
:1001B400F003000808B5034B1BB103490348AFF330
:1001C400008008BD0000000004000020F0030008C7
:1001D40080B400AF0B4B1B680A4A23F01F03136063
:1001E400084B1B68074A43F010031360064B1B6857
:1001F400054A43F00103136000BFBD465DF8047B6C
:10020400704700BF443802403038024080B400AF29
:10021400144B1B68134A43F001031360114B1B6812
:10022400104A9B0D9B0513600E4B1B680D4A43F44B
:10023400001313600C4B1B680B4A43F4E063136018
:100244000A4B1B68094A9B0D9B051360074B1B68EF
:10025400064A43F40013136000BFBD465DF8047BF7
:10026400704700BF00000240240002400800024022
:1002740080B400AF194B1B68184A23F4FF5323F0D2
:100284001F031360154B1B68144A43F40053136097
:10029400134B1B68124A23F47F5323F03F0313606C
:1002A4000F4B1B680E4A43F4005313600D4B1B683D
:1002B4000C4A43F0040313600A4B1B68094A43F4D5
:1002C400CE631360054B1B68044A43F004031360B8
:1002D40000BFBD465DF8047B704700BF0C100140B1
:1002E400101001400810014080B483B000AF0F4BE0
:1002F4001B68FB7100BF0E4B1B6803F02003002B2F
:10030400F9D00B4B1B680A4A23F03F031360FB79B7
:10031400612B05D1074B1B68064A43F001031360A8
:1003240000BF0C37BD465DF8047B704704100140E4
:10033400001001401400024080B500AFFFF748FFF1
:10034400FFF764FFFFF794FFFFF7CEFF0023184683
:1003540080BD00BF70B50D4D0D4C641BA41000266C
:10036400A64209D10B4D0C4C00F040F8641BA410BC
:100374000026A64205D170BD55F8043B98470136C6
:10038400EEE755F8043B98470136F2E70804000805
:1003940008040008080400080C040008DFF830D042
:1003A4000C480D490D4A002302E0D458C4500433CC
:1003B400C4188C42F9D30A4A0A4C002301E01360A2
:1003C4000432A242FBD3FFF7C5FFFFF7B5FF704726
:1003D400000001200000002000000020100400089C
:1003E400000000201C000020FEE70000F8B500BF5C
:1003F400F8BC08BC9E467047F8B500BFF8BC08BC02
:040404009E46704759
:04040800B90100082E
:04040C00950100084E
:04000005080003A14B
:00000001FF
